:100000000C942A000C943F000C943F000C943F0089
:100010000C943F000C943F000C943F000C943F0064
:100020000C943F000C943F000C943F000C943F0054
:100030000C943F000C943F000C943F000C943F0044
:100040000C943F000C943F000C943F000C943F0034
:100050000C943F0011241FBECFE5D8E0DEBFCDBF1A
:1000600010E0A0E6B0E0EAE7FEE202C005900D92E3
:10007000A039B107D9F70E9451150C943B170C9485
:100080000000EF92FF920F931F937B018C0120E001
:1000900030E040E05FE40E94410388238CF0C80117
:1000A000B70120E030E040E05FE40E94B9010E9427
:1000B000A1039B01AC01205030404040504806C095
:1000C000C801B7010E94A1039B01AC01B901CA019B
:1000D0001F910F91FF90EF900895A0E0B0E0E3E74B
:1000E000F0E00C940417DC012B01FA019C91923092
:1000F00008F439C1EB018881823008F433C19430AF
:1001000069F4843009F02FC111969C91119789816F
:10011000981709F428C1A8E7B0E025C1843009F494
:1001200021C18230A9F4923009F01DC19A01AD01BC
:1001300088E0EA010990AE01E90109929E0181502F
:10014000C1F7E201898111969C918923818308C1BD
:10015000923009F407C112962D903C901397EB0151
:100160008A819B811496AD90BD90CD90DC901797BD
:10017000EC80FD800E811F819101281B390BB90194
:1001800037FF04C066277727621B730B6032710547
:100190000CF061C0121613066CF537014801062EEB
:1001A00004C096948794779467940A94D2F721E0D8
:1001B00030E040E050E004C0220F331F441F551FC1
:1001C0006A95D2F721503040404050402E213F21C7
:1001D00040235123211531054105510521F021E02E
:1001E00030E040E050E079018A01E628F72808294C
:1001F00019293CC0232BD1F1260E371E35014601AB
:10020000062E04C096948794779467940A94D2F744
:1002100021E030E040E050E004C0220F331F441FD3
:10022000551F6A95D2F721503040404050402A2156
:100230003B214C215D21211531054105510521F05E
:1002400021E030E040E050E059016A01A628B728DB
:10025000C828D9280BC0821593052CF01C01AA24AC
:10026000BB24650103C0EE24FF24870111969C91F5
:10027000D20111968C91981709F445C0992339F051
:10028000A80197012A193B094C095D0906C0A6017E
:1002900095012E193F09400B510B57FD08C01182E3
:1002A0003382228224833583468357831DC081E0B5
:1002B00081833382228288279927DC01821B930B5A
:1002C000A40BB50B84839583A683B7830DC0220F3F
:1002D000331F441F551F24833583468357838281F0
:1002E000938101979383828324813581468157814D
:1002F000DA01C9010197A109B1098F5F9F4FAF4F83
:10030000BF4328F30BC0918333822282EA0CFB1C8B
:100310000C1D1D1DE482F5820683178383E0808314
:10032000248135814681578157FF1AC0C901AA2708
:1003300097FDA095BA2F81709070A070B0705695FF
:10034000479537952795822B932BA42BB52B848328
:100350009583A683B7838281938101969383828359
:10036000DF0101C0D201CD01CDB7DEB7E2E10C94CF
:100370002017A0E2B0E0EFEBF1E00C9410176983D6
:100380007A838B839C832D833E834F835887E9E058
:10039000EE2EF12CEC0EFD1ECE010196B7010E944F
:1003A000CA048E010F5E1F4FCE010596B8010E9450
:1003B000CA048A8991E089278A8BC701B801AE01F6
:1003C000475E5F4F0E946D000E94F503A096E6E035
:1003D0000C942C17A0E2B0E0E0EFF1E00C941017C1
:1003E00069837A838B839C832D833E834F835887D5
:1003F000F9E0EF2EF12CEC0EFD1ECE010196B701B7
:100400000E94CA048E010F5E1F4FCE010596B801EF
:100410000E94CA04C701B801AE01475E5F4F0E9447
:100420006D000E94F503A096E6E00C942C17A0E264
:10043000B0E0EDE1F2E00C94041769837A838B83DA
:100440009C832D833E834F835887CE010196BE0146
:10045000675F7F4F0E94CA04CE010596BE016F5EA2
:100460007F4F0E94CA049985923088F08989823032
:10047000C8F0943019F4823051F404C0843029F467
:10048000923081F488E790E0C6C0923049F420E0D1
:100490009A858A89981321E02A87CE010996BBC0E4
:1004A000823049F420E09A858A89981321E02A8BCA
:1004B000CE014196B0C02D843E844F8458886D880B
:1004C0007E888F88988CEE24FF248701AA24BB2481
:1004D000650140E050E060E070E0E0E0F0E0C10184
:1004E00081709070892BE9F0E60CF71C081D191D2E
:1004F0009A01AB012A0D3B1D4C1D5D1D80E090E073
:10050000A0E0B0E0E614F7040805190520F481E046
:1005100090E0A0E0B0E0BA01A901480F591F6A1F9E
:100520007B1FAA0CBB1CCC1CDD1C97FE08C081E005
:1005300090E0A0E0B0E0A82AB92ACA2ADB2A3196C6
:10054000E032F10549F0660C771C881C991C569422
:10055000479437942794C3CFFA85EA892B893C893D
:100560008B859C85280F391F2E5F3F4F17C0CA010E
:1005700081709070892B61F016950795F794E79438
:1005800080E090E0A0E0B0E8E82AF92A0A2B1B2BD3
:1005900076956795579547952F5F3F4F77FDE7CF46
:1005A0000CC0440F551F661F771F17FD4160EE0CEE
:1005B000FF1C001F111F21503040403090E05907B0
:1005C00090E0690790E4790760F32B8F3C8FDB01A3
:1005D000CA018F779070A070B07080349105A1052A
:1005E000B10561F447FD0AC0E114F10401051105EC
:1005F00029F0405C5F4F6F4F7F4F40781A8EFE1797
:1006000011F081E08A8F4D8F5E8F6F8F78A383E02A
:10061000898FCE0149960E94F503A096E2E10C94E1
:100620002017A8E1B0E0E7E1F3E00C94101769832C
:100630007A838B839C832D833E834F83588789E005
:10064000E82EF12CEC0EFD1ECE010196B7010E94A2
:10065000CA048E010F5E1F4FCE010596B8010E949D
:10066000CA048985823040F08989823028F0C70128
:10067000B8010E94420501C08FEF6896E6E00C9435
:100680002C17A8E1B0E0E7E4F3E00C9410176983BD
:100690007A838B839C832D833E834F83588789E0A5
:1006A000E82EF12CEC0EFD1ECE010196B7010E9442
:1006B000CA048E010F5E1F4FCE010596B8010E943D
:1006C000CA048985823040F08989823028F0C701C8
:1006D000B8010E94420501C08FEF6896E6E00C94D5
:1006E0002C17A8E1B0E0E7E7F3E00C94101769835A
:1006F0007A838B839C832D833E834F83588789E045
:10070000E82EF12CEC0EFD1ECE010196B7010E94E1
:10071000CA048E010F5E1F4FCE010596B8010E94DC
:10072000CA048985823040F08989823028F0C70167
:10073000B8010E94420501C081E06896E6E00C9491
:100740002C17ACE0B0E0E7EAF3E00C9414176983EF
:100750007A838B839C83CE010196BE016B5F7F4FB2
:100760000E94CA048D81823061F1823050F1843060
:1007700021F48E81882351F12EC02F81388537FDD9
:1007800020C06E812F3131051CF06623F9F023C0A3
:100790008EE190E0821B930B29853A854B855C8521
:1007A00004C056954795379527958A95D2F76623C5
:1007B000B1F050954095309521953F4F4F4F5F4F89
:1007C0000EC020E030E040E050E009C02FEF3FEFE6
:1007D0004FEF5FE704C020E030E040E050E8B901AF
:1007E000CA012C96E2E00C943017DF92EF92FF9250
:1007F0000F931F93FC01E480F58006811781D1805F
:100800008081823048F480E090E0A0E1B0E0E82A06
:10081000F92A0A2B1B2BA5C0843009F49FC0823013
:1008200021F4EE24FF24870105C0E114F104010541
:10083000110519F4E0E0F0E096C0628173819FEF4A
:10084000623879070CF05BC022E83FEF261B370BBC
:100850002A3131052CF020E030E040E050E02AC0A1
:10086000B801A701022E04C0769567955795479564
:100870000A94D2F781E090E0A0E0B0E004C0880FD5
:10088000991FAA1FBB1F2A95D2F70197A109B10989
:100890008E219F21A023B1230097A105B10521F04E
:1008A00081E090E0A0E0B0E09A01AB01282B392B69
:1008B0004A2B5B2BDA01C9018F779070A070B07062
:1008C00080349105A105B10539F427FF09C0205CEA
:1008D0003F4F4F4F5F4F04C0215C3F4F4F4F5F4F23
:1008E000E0E0F0E02030A0E03A07A0E04A07A0E412
:1008F0005A0710F0E1E0F0E079018A0127C0603882
:10090000710564F5FB01E158FF4FD801C7018F77EE
:100910009070A070B07080349105A105B10539F4D4
:10092000E7FE0DC080E490E0A0E0B0E004C08FE3FB
:1009300090E0A0E0B0E0E80EF91E0A1F1B1F17FFB1
:1009400005C016950795F794E794319687E01695BC
:100950000795F794E7948A95D1F705C0EE24FF2414
:100960008701EFEFF0E06E2F679566276795902F70
:100970009F77D794DD24D7948E2F8695492F462BC9
:10098000582F5D29B701CA011F910F91FF90EF9079
:10099000DF900895FC01DB01408151812281622FAB
:1009A0006F7770E0221F2227221F9381892F880FE3
:1009B000822B282F30E0991F9927991F11969C931D
:1009C000119721153105A9F54115510561057105ED
:1009D00011F482E037C082E89FEF13969C938E93C8
:1009E00012979A01AB0167E0220F331F441F551F76
:1009F0006A95D1F783E08C930DC0220F331F441FFB
:100A0000551F12968D919C911397019713969C9365
:100A10008E931297203080E0380780E0480780E40A
:100A2000580758F314962D933D934D935C93179765
:100A300008952F3F310579F4411551056105710580
:100A400019F484E08C93089564FF03C081E08C93D3
:100A500012C01C9210C02F57304013963C932E9317
:100A6000129783E08C9387E0440F551F661F771F12
:100A70008A95D1F7706414964D935D936D937C9332
:100A8000179708951F93DC01FB019C91923008F4A5
:100A900047C08081823008F443C0943051F41196ED
:100AA0001C91843099F58181682F70E0611B710978
:100AB0003FC0843021F0923031F48230B9F181812D
:100AC000882389F12DC011961C9111978230F1F085
:100AD00081811817D9F412962D913C911397828138
:100AE00093818217930794F028173907BCF0149666
:100AF0008D919D910D90BC91A02D248135814681D1
:100B00005781281739074A075B0718F4112341F06A
:100B10000AC082179307A407B50740F4112319F000
:100B200061E070E005C06FEF7FEF02C060E070E051
:100B3000CB011F910895DF93CF9300D0CDB7DEB7DF
:100B400089836A838981823018F08981833011F525
:100B50008A818830F8F4A7E2B0E0E7E2F0E0808133
:100B6000282F2F738981882F90E0002496958795F0
:100B70000794969587950794982F802D822B8C93B8
:100B8000A6E2B0E0E6E2F0E08081982F987F8A81CB
:100B9000892B8C93A7E2B0E0E7E2F0E080818F7DC3
:100BA0008C93A6E2B0E0E6E2F0E08081877F8C9350
:100BB000A6E2B0E0E6E2F0E080818F7D8C93A6E2D1
:100BC000B0E0E6E2F0E0808180688C930F900F90B7
:100BD000CF91DF910895DF93CF9300D00F92CDB7DF
:100BE000DEB789837B836A838981803258F5A7E2E7
:100BF000B0E0E7E2F0E08081982F907E8981892B38
:100C00008C93A6E2B0E0E6E2F0E0808180648C9311
:100C1000E6E2F0E0808182958F70882F90E081700D
:100C200090700097A9F3A6E2B0E0E6E2F0E08081E0
:100C300080618C93E4E2F0E080819181EA81FB8124
:100C4000918380830F900F900F90CF91DF91089543
:100C5000DF93CF93CDB7DEB729970FB6F894DEBFF9
:100C60000FBECDBF89836A834B838A81883008F0A9
:100C7000C9C18B81882309F07CC08981282F30E08D
:100C800039872887888599858130910569F128857C
:100C90003985223031052CF488859985009769F0D3
:100CA000B1C12885398522303105A9F1888599851A
:100CB0008330910509F446C0A5C1A9E3B0E0E9E39A
:100CC000F0E08181482F8A81282F30E081E090E098
:100CD000022E02C0880F991F0A94E2F780958423A0
:100CE00011968C9311978EC1A6E3B0E0E6E3F0E095
:100CF0008181482F8A81282F30E081E090E0022E08
:100D000002C0880F991F0A94E2F7809584231196F8
:100D10008C93119777C1A3E3B0E0E3E3F0E0818126
:100D2000482F8A81282F30E081E090E0022E02C017
:100D3000880F991F0A94E2F78095842311968C936B
:100D4000119760C1A0E3B0E0E0E3F0E08181482FBB
:100D50008A81282F30E081E090E0022E02C0880FC7
:100D6000991F0A94E2F78095842311968C9311972A
:100D700049C18B81813009F078C08981282F30E00A
:100D80003F832E838E819F818130910561F12E8179
:100D90003F81223031052CF48E819F81009769F0CC
:100DA00031C12E813F812230310599F18E819F81A1
:100DB0008330910509F443C025C1A9E3B0E0E9E31C
:100DC000F0E08181482F8A81282F30E081E090E097
:100DD000022E02C0880F991F0A94E2F7842B119605
:100DE0008C9311970FC1A6E3B0E0E6E3F0E08181B8
:100DF000482F8A81282F30E081E090E0022E02C047
:100E0000880F991F0A94E2F7842B11968C931197FF
:100E1000F9C0A3E3B0E0E3E3F0E08181482F8A81E9
:100E2000282F30E081E090E0022E02C0880F991F49
:100E30000A94E2F7842B11968C931197E3C0A0E3F8
:100E4000B0E0E0E3F0E08181482F8A81282F30E094
:100E500081E090E0022E02C0880F991F0A94E2F709
:100E6000842B11968C931197CDC08B81823009F021
:100E7000C9C08981282F30E03D832C838C819D81DE
:100E80008130910509F441C02C813D81223031052A
:100E90002CF48C819D81009771F0B4C02C813D8130
:100EA0002230310509F45BC08C819D81833091052E
:100EB00009F47FC0A7C0A9E3B0E0E9E3F0E08181D5
:100EC000482F8A81282F30E081E090E002C0880F0F
:100ED000991F2A95E2F78095842311968C93A9E3B4
:100EE000B0E0E9E3F0E08281482F8A81282F30E0EA
:100EF00081E090E0022E02C0880F991F0A94E2F769
:100F0000842B12968C9312977DC0A6E3B0E0E6E3A3
:100F1000F0E08181482F8A81282F30E081E090E045
:100F200002C0880F991F2A95E2F7809584231196B5
:100F30008C93A6E3B0E0E6E3F0E08281482F8A815B
:100F4000282F30E081E090E0022E02C0880F991F28
:100F50000A94E2F7842B12968C93129753C0A3E362
:100F6000B0E0E3E3F0E08181482F8A81282F30E070
:100F700081E090E002C0880F991F2A95E2F78095E2
:100F8000842311968C93A3E3B0E0E3E3F0E0828145
:100F9000482F8A81282F30E081E090E0022E02C0A5
:100FA000880F991F0A94E2F7842B12968C9312975C
:100FB00029C0A0E3B0E0E0E3F0E08181482F8A811E
:100FC000282F30E081E090E002C0880F991F2A9519
:100FD000E2F78095842311968C93A0E3B0E0E0E3E0
:100FE000F0E08281482F8A81282F30E081E090E074
:100FF000022E02C0880F991F0A94E2F7842B1296E2
:101000008C93129729960FB6F894DEBF0FBECDBF12
:10101000CF91DF910895DF93CF93CDB7DEB72997B6
:101020000FB6F894DEBF0FBECDBF89836A834B83B2
:101030008A81883008F077C18B81882309F07CC0D1
:101040008981282F30E039872887888599858130E4
:10105000910569F128853985223031052CF4888580
:101060009985009769F05FC128853985223031055F
:10107000A9F1888599858330910509F446C053C14B
:10108000A9E3B0E0E9E3F0E08281482F8A81282FCC
:1010900030E081E090E0022E02C0880F991F0A9490
:1010A000E2F78095842312968C9312973CC1A6E3B5
:1010B000B0E0E6E3F0E08281482F8A81282F30E01B
:1010C00081E090E0022E02C0880F991F0A94E2F797
:1010D0008095842312968C93129725C1A3E3B0E0E8
:1010E000E3E3F0E08281482F8A81282F30E081E01D
:1010F00090E0022E02C0880F991F0A94E2F78095B3
:10110000842312968C9312970EC1A0E3B0E0E0E323
:10111000F0E08281482F8A81282F30E081E090E042
:10112000022E02C0880F991F0A94E2F7809584234B
:1011300012968C931297F7C08B81813009F078C09A
:101140008981282F30E03F832E838E819F818130DB
:10115000910561F12E813F81223031052CF48E8181
:101160009F81009769F0DFC02E813F8122303105D9
:1011700099F18E819F818330910509F443C0D3C0DA
:10118000A9E3B0E0E9E3F0E08281482F8A81282FCB
:1011900030E081E090E0022E02C0880F991F0A948F
:1011A000E2F7842B12968C931297BDC0A6E3B0E0B1
:1011B000E6E3F0E08281482F8A81282F30E081E049
:1011C00090E0022E02C0880F991F0A94E2F7842B48
:1011D00012968C931297A7C0A3E3B0E0E3E3F0E08C
:1011E0008281482F8A81282F30E081E090E0022E12
:1011F00002C0880F991F0A94E2F7842B12968C93F1
:10120000129791C0A0E3B0E0E0E3F0E08281482FC4
:101210008A81282F30E081E090E0022E02C0880F02
:10122000991F0A94E2F7842B12968C9312977BC035
:101230008B81823009F077C08981282F30E03D838F
:101240002C838C819D818130910561F12C813D81C0
:10125000223031052CF48C819D81009769F063C0A8
:101260002C813D812230310599F18C819D81833023
:10127000910509F443C057C0A9E3B0E0E9E3F0E009
:101280008281482F8A81282F30E081E090E0022E71
:1012900002C0880F991F0A94E2F7842712968C9354
:1012A000129741C0A6E3B0E0E6E3F0E08281482F68
:1012B0008A81282F30E081E090E0022E02C0880F62
:1012C000991F0A94E2F7842712968C9312972BC0E9
:1012D000A3E3B0E0E3E3F0E08281482F8A81282F86
:1012E00030E081E090E0022E02C0880F991F0A943E
:1012F000E2F7842712968C93129715C0A0E3B0E012
:10130000E0E3F0E08281482F8A81282F30E081E0FD
:1013100090E0022E02C0880F991F0A94E2F78427FA
:1013200012968C93129729960FB6F894DEBF0FBED3
:10133000CDBFCF91DF910895DF93CF9300D000D040
:1013400000D0CDB7DEB789836A835C834B838A8103
:10135000883008F070C08981282F30E03E832D83CB
:101360004D815E814130510559F18D819E818230E0
:10137000910534F42D813E812115310569F05BC062
:101380004D815E814230510579F18D819E8183309E
:10139000910509F43DC04FC0E9E3F0E08081282FBA
:1013A00030E08A81882F90E0A90102C055954795C9
:1013B0008A95E2F7CA018170EB81FC8180833BC092
:1013C000E6E3F0E08081282F30E08A81882F90E0EA
:1013D000A90102C0559547958A95E2F7CA01817027
:1013E000EB81FC81808327C0E3E3F0E08081282F3C
:1013F00030E08A81882F90E0A90102C05595479579
:101400008A95E2F7CA018170EB81FC81808313C069
:10141000E0E3F0E08081282F30E08A81882F90E09F
:10142000A90102C0559547958A95E2F7CA018170D6
:10143000EB81FC81808326960FB6F894DEBF0FBE49
:10144000CDBFCF91DF910895DF93CF9300D000D02F
:10145000CDB7DEB789836A838A81873008F477C085
:101460008981282F30E03C832B838B819C818130C4
:10147000910561F12B813C81223031052CF48B8167
:101480009C81009769F063C02B813C81223031053B
:1014900099F18B819C818330910509F443C057C039
:1014A000A9E3B0E0E9E3F0E08281482F8A81282FA8
:1014B00030E081E090E0022E02C0880F991F0A946C
:1014C000E2F7842712968C93129741C0A6E3B0E00E
:1014D000E6E3F0E08281482F8A81282F30E081E026
:1014E00090E0022E02C0880F991F0A94E2F7842729
:1014F00012968C9312972BC0A3E3B0E0E3E3F0E0E5
:101500008281482F8A81282F30E081E090E0022EEE
:1015100002C0880F991F0A94E2F7842712968C93D1
:10152000129715C0A0E3B0E0E0E3F0E08281482F1D
:101530008A81282F30E081E090E0022E02C0880FDF
:10154000991F0A94E2F7842712968C9312970F90B2
:101550000F900F900F90CF91DF910895DF93CF936D
:1015600000D000D0CDB7DEB789836A838A81873007
:1015700008F4C9C08981282F30E03C832B838B81FC
:101580009C818130910509F441C02B813C8122303E
:1015900031052CF48B819C81009771F0B4C02B81B4
:1015A0003C812230310509F45BC08B819C81833002
:1015B000910509F47FC0A7C0A9E3B0E0E9E3F0E03A
:1015C0008181482F8A81282F30E081E090E002C09D
:1015D000880F991F2A95E2F78095842311968C93A2
:1015E000A9E3B0E0E9E3F0E08281482F8A81282F67
:1015F00030E081E090E0022E02C0880F991F0A942B
:10160000E2F7842B12968C9312977DC0A6E3B0E08C
:10161000E6E3F0E08181482F8A81282F30E081E0E5
:1016200090E002C0880F991F2A95E2F780958423E5
:1016300011968C93A6E3B0E0E6E3F0E08281482FB8
:101640008A81282F30E081E090E0022E02C0880FCE
:10165000991F0A94E2F7842B12968C93129753C029
:10166000A3E3B0E0E3E3F0E08181482F8A81282FF3
:1016700030E081E090E002C0880F991F2A95E2F7E0
:101680008095842311968C93A3E3B0E0E3E3F0E02C
:101690008281482F8A81282F30E081E090E0022E5D
:1016A00002C0880F991F0A94E2F7842B12968C933C
:1016B000129729C0A0E3B0E0E0E3F0E08181482F79
:1016C0008A81282F30E081E090E002C0880F991FC6
:1016D0002A95E2F78095842311968C93A0E3B0E0DD
:1016E000E0E3F0E08281482F8A81282F30E081E01A
:1016F00090E0022E02C0880F991F0A94E2F7842B13
:1017000012968C9312970F900F900F900F90CF918D
:10171000DF910895DF93CF9300D000D0CDB7DEB72F
:1017200089836A838981282F30E03C832B838B81D6
:101730009C8181309105D1F02B813C812230310593
:101740002CF48B819C81009761F01EC02B813C8121
:101750002230310581F08B819C818330910581F0AD
:1017600013C0E9E3F0E08A8181830EC0E6E3F0E094
:101770008A81818309C0E3E3F0E08A81818304C028
:10178000E0E3F0E08A8181830F900F900F900F903B
:10179000CF91DF910895DF93CF9300D000D0CDB7E4
:1017A000DEB789836A838981282F30E03C832B83CD
:1017B0008B819C8181309105D1F02B813C8122303D
:1017C00031052CF48B819C81009761F01EC02B8128
:1017D0003C812230310581F08B819C8183309105E1
:1017E00081F013C0E9E3F0E08A8182830EC0E6E372
:1017F000F0E08A81828309C0E3E3F0E08A8182839A
:1018000004C0E0E3F0E08A8182830F900F900F9094
:101810000F90CF91DF910895DF93CF9300D000D048
:101820000F92CDB7DEB789837B836A838981282FA6
:1018300030E03D832C838C819D8181309105E1F0E6
:101840002C813D81223031052CF48C819D810097C3
:1018500061F026C02C813D8122303105A1F08C81C0
:101860009D8183309105B1F01BC0E9E3F0E08081F8
:10187000EA81FB81808314C0E6E3F0E08081EA81A5
:10188000FB8180830DC0E3E3F0E08081EA81FB818E
:10189000808306C0E0E3F0E08081EA81FB81808301
:1018A0000F900F900F900F900F90CF91DF910895B0
:1018B000DF93CF9300D00F92CDB7DEB789838981B4
:1018C000282F30E03B832A838A819B8181309105D8
:1018D000F9F02A813B81223031052CF48A819B81E9
:1018E000009761F032C02A813B8122303105D1F06E
:1018F0008A819B8183309105F9F027C0A9E3B0E08C
:10190000E9E3F0E08281809512968C9312971DC0D6
:10191000A6E3B0E0E6E3F0E08281809512968C9336
:10192000129713C0A3E3B0E0E3E3F0E08281809577
:1019300012968C93129709C0A0E3B0E0E0E3F0E0C8
:101940008281809512968C9312970F900F900F9032
:10195000CF91DF910895DF93CF9300D00F92CDB751
:10196000DEB789838981282F30E03B832A838A81EF
:101970009B8181309105D1F02A813B812230310554
:101980002CF48A819B81009761F01EC02A813B81E3
:101990002230310581F08A819B818330910581F06D
:1019A00013C0E9E3F0E08FEF82830EC0E6E3F0E0DE
:1019B0008FEF828309C0E3E3F0E08FEF828304C0FE
:1019C000E0E3F0E08FEF82830F900F900F90CF91C4
:1019D000DF910895DF93CF9300D0CDB7DEB71A82A1
:1019E00008C081E06A8140E00E9428068A818F5FFA
:1019F0008A838A818430A8F384E0898308C081E0E7
:101A0000698141E00E94280689818F5F89838981ED
:101A10008830A8F381E06FEF0E94CB0B0F900F90FE
:101A2000CF91DF910895DF93CF93CDB7DEB7629763
:101A30000FB6F894DEBF0FBECDBF81E08A8B198A46
:101A400084E0888BB5C081E0688940E00E940B0883
:101A50001F86A2C09E012E5E3F4F81E06F85A901C7
:101A60000E949C098A89882309F093C08F85482F9A
:101A700050E08889882F90E09C0124503040CA01B2
:101A8000880F991F880F991F820F931FFC01E05840
:101A9000FF4F8081898B80E090E0A8E4B2E48B87DF
:101AA0009C87AD87BE876B857C858D859E8520E074
:101AB00030E04AEF54E40E941702DC01CB018F832F
:101AC0009887A987BA876F81788589859A8520E06C
:101AD00030E040E85FE30E94710388232CF481E04A
:101AE00090E09E838D833FC06F81788589859A853C
:101AF00020E03FEF4FE757E40E94110318164CF522
:101B00006B857C858D859E8520E030E040E251E448
:101B10000E941702DC01CB01BC01CD010E944100F3
:101B2000DC01CB019E838D830FC088EC90E09C8309
:101B30008B838B819C810197F1F79C838B838D81B3
:101B40009E8101979E838D838D819E81009769F789
:101B50001DC06F81788589859A850E944100DC01CE
:101B6000CB019E838D838D819E819A838983898118
:101B70009A810197F1F79A83898308C09E012E5EAE
:101B80003F4F81E06F85A9010E949C098A898823C3
:101B9000A9F38F858F5F8F878F85843008F45ACFA4
:101BA00081E0688941E00E940B0888898F5F888BFB
:101BB0008889883008F447CF898962960FB6F894EF
:101BC000DEBF0FBECDBFCF91DF910895DF93CF93DE
:101BD000CDB7DEB7E8970FB6F894DEBF0FBECDBF26
:101BE00082E062E041E00E94280682E060E041E09D
:101BF0000E94280682E061E041E00E94280683E01E
:101C000060E041E00E94280683E061E041E00E943C
:101C1000280683E062E041E00E94280683E063E05A
:101C200041E00E94280680E090E0A0E2B2E48DABA3
:101C30009EABAFABB8AF6DA97EA98FA998AD20E0E0
:101C400030E04AEF54E40E941702DC01CB0189AB7B
:101C50009AABABABBCAB69A97AA98BA99CA920E0D4
:101C600030E040E85FE30E94710388232CF481E0B8
:101C700090E098AB8FA73FC069A97AA98BA99CA9CE
:101C800020E03FEF4FE757E40E94110318164CF590
:101C90006DA97EA98FA998AD20E030E040E251E423
:101CA0000E941702DC01CB01BC01CD010E94410062
:101CB000DC01CB0198AB8FA70FC088EC90E09EA70A
:101CC0008DA78DA59EA50197F1F79EA78DA78FA53E
:101CD00098A9019798AB8FA78FA598A9009769F746
:101CE00014C069A97AA98BA99CA90E944100DC01B2
:101CF000CB0198AB8FA78FA598A99CA78BA78BA585
:101D00009CA50197F1F79CA78BA783E30E94F30F93
:101D100082E30E94F30F88E20E94F30F80E090E0DC
:101D2000A0E8BFE38FA398A7A9A7BAA76FA178A53A
:101D300089A59AA520E030E04AEF54E40E941702FA
:101D4000DC01CB018BA39CA3ADA3BEA36BA17CA1A3
:101D50008DA19EA120E030E040E85FE30E94710386
:101D600088232CF481E090E09AA389A33FC06BA163
:101D70007CA18DA19EA120E03FEF4FE757E40E9498
:101D8000110318164CF56FA178A589A59AA520E036
:101D900030E040E251E40E941702DC01CB01BC01BB
:101DA000CD010E944100DC01CB019AA389A30FC0A1
:101DB00088EC90E098A38F8F8F8D98A10197F1F711
:101DC00098A38F8F89A19AA101979AA389A389A12A
:101DD0009AA1009769F714C06BA17CA18DA19EA167
:101DE0000E944100DC01CB019AA389A389A19AA199
:101DF0009E8F8D8F8D8D9E8D0197F1F79E8F8D8F8C
:101E00008EE00E94F30F80E090E0A0E8BFE3898FAE
:101E10009A8FAB8FBC8F698D7A8D8B8D9C8D20E0D6
:101E200030E04AEF54E40E941702DC01CB018D8BB5
:101E30009E8BAF8BB88F6D897E898F89988D20E0BE
:101E400030E040E85FE30E94710388232CF481E0D6
:101E500090E09C8B8B8B3FC06D897E898F89988D9C
:101E600020E03FEF4FE757E40E94110318164CF5AE
:101E7000698D7A8D8B8D9C8D20E030E040E251E4BD
:101E80000E941702DC01CB01BC01CD010E94410080
:101E9000DC01CB019C8B8B8B0FC088EC90E09A8B84
:101EA000898B89899A890197F1F79A8B898B8B891C
:101EB0009C8901979C8B8B8B8B899C89009769F7F8
:101EC00014C06D897E898F89988D0E944100DC0144
:101ED000CB019C8B8B8B8B899C89988B8F878F8573
:101EE00098890197F1F7988B8F8781E00E94F30F13
:101EF00080E090E0A0E0B0E48B879C87AD87BE8750
:101F00006B857C858D859E8520E030E04AEF54E42A
:101F10000E941702DC01CB018F839887A987BA87BB
:101F20006F81788589859A8520E030E040E85FE31D
:101F30000E94710388232CF481E090E09E838D83BE
:101F40003FC06F81788589859A8520E03FEF4FE714
:101F500057E40E94110318164CF56B857C858D851E
:101F60009E8520E030E040E251E40E941702DC014F
:101F7000CB01BC01CD010E944100DC01CB019E835D
:101F80008D830FC088EC90E09C838B838B819C8138
:101F90000197F1F79C838B838D819E8101979E83AE
:101FA0008D838D819E81009769F714C06F8178853C
:101FB00089859A850E944100DC01CB019E838D8337
:101FC0008D819E819A83898389819A810197F1F716
:101FD0009A838983E8960FB6F894DEBF0FBECDBF13
:101FE000CF91DF910895DF93CF93CDB7DEB7E99717
:101FF0000FB6F894DEBF0FBECDBF89AF82E060E0C0
:1020000040E00E940B0882E061E040E00E940B0883
:1020100089AD82958F70982F917083E060E0492F91
:102020000E940B0889AD829586958770982F9170D4
:1020300083E061E0492F0E940B0889AD8295869567
:1020400086958370982F917083E062E0492F0E94FB
:102050000B0889AD982F991F9927991F83E063E09A
:10206000492F0E940B0882E062E041E00E940B08C9
:1020700080E090E0A0E8BFE38DAB9EABAFABB8AF24
:102080006DA97EA98FA998AD20E030E04AEF54E415
:102090000E941702DC01CB0189AB9AABABABBCABA6
:1020A00069A97AA98BA99CA920E030E040E85FE308
:1020B0000E94710388232CF481E090E098AB8FA7F5
:1020C0003FC069A97AA98BA99CA920E03FEF4FE7FF
:1020D00057E40E94110318164CF56DA97EA98FA92B
:1020E00098AD20E030E040E251E40E941702DC01AC
:1020F000CB01BC01CD010E944100DC01CB0198ABBA
:102100008FA70FC088EC90E09EA78DA78DA59EA5F8
:102110000197F1F79EA78DA78FA598A9019798AB76
:102120008FA78FA598A9009769F714C069A97AA904
:102130008BA99CA90E944100DC01CB0198AB8FA721
:102140008FA598A99CA78BA78BA59CA50197F1F7B4
:102150009CA78BA782E062E040E00E940B0880E031
:1021600090E0A0EAB0E48FA398A7A9A7BAA76FA1AF
:1021700078A589A59AA520E030E04AEF54E40E94B2
:102180001702DC01CB018BA39CA3ADA3BEA36BA163
:102190007CA18DA19EA120E030E040E85FE30E9499
:1021A000710388232CF481E090E09AA389A33FC0B7
:1021B0006BA17CA18DA19EA120E03FEF4FE757E4EA
:1021C0000E94110318164CF56FA178A589A59AA550
:1021D00020E030E040E251E40E941702DC01CB0134
:1021E000BC01CD010E944100DC01CB019AA389A36F
:1021F0000FC088EC90E098A38F8F8F8D98A10197E6
:10220000F1F798A38F8F89A19AA101979AA389A327
:1022100089A19AA1009769F714C06BA17CA18DA137
:102220009EA10E944100DC01CB019AA389A389A150
:102230009AA19E8F8D8F8D8D9E8D0197F1F79E8F28
:102240008D8F89AD982F917083E060E0492F0E94B7
:102250000B0889AD8695982F917083E061E0492F36
:102260000E940B0889AD86958695982F917083E022
:1022700062E0492F0E940B0889AD86958695869568
:10228000982F917083E063E0492F0E940B0882E051
:1022900062E041E00E940B0880E090E0A0E8BFE32C
:1022A000898F9A8FAB8FBC8F698D7A8D8B8D9C8D2A
:1022B00020E030E04AEF54E40E941702DC01CB0139
:1022C0008D8B9E8BAF8BB88F6D897E898F89988D12
:1022D00020E030E040E85FE30E94710388232CF4A3
:1022E00081E090E09C8B8B8B3FC06D897E898F89CC
:1022F000988D20E03FEF4FE757E40E941103181636
:102300004CF5698D7A8D8B8D9C8D20E030E040E21C
:1023100051E40E941702DC01CB01BC01CD010E94F7
:102320004100DC01CB019C8B8B8B0FC088EC90E0D3
:102330009A8B898B89899A890197F1F79A8B898B76
:102340008B899C8901979C8B8B8B8B899C890097AF
:1023500069F714C06D897E898F89988D0E9441002C
:10236000DC01CB019C8B8B8B8B899C89988B8F8715
:102370008F8598890197F1F7988B8F8782E062E0CB
:1023800040E00E940B0880E090E0A0EAB0E48B8778
:102390009C87AD87BE876B857C858D859E8520E07B
:1023A00030E04AEF54E40E941702DC01CB018F8336
:1023B0009887A987BA876F81788589859A8520E073
:1023C00030E040E85FE30E94710388232CF481E051
:1023D00090E09E838D833FC06F81788589859A8543
:1023E00020E03FEF4FE757E40E94110318164CF529
:1023F0006B857C858D859E8520E030E040E251E450
:102400000E941702DC01CB01BC01CD010E944100FA
:10241000DC01CB019E838D830FC088EC90E09C8310
:102420008B838B819C810197F1F79C838B838D81BA
:102430009E8101979E838D838D819E81009769F790
:1024400014C06F81788589859A850E944100DC01DE
:10245000CB019E838D838D819E819A83898389811F
:102460009A810197F1F79A838983E9960FB6F894D8
:10247000DEBF0FBECDBFCF91DF910895DF93CF9325
:10248000CDB7DEB76D970FB6F894DEBF0FBECDBFE8
:102490008D8F82E060E041E00E940B0882E061E005
:1024A00040E00E940B088D8D982F991F9927991F46
:1024B00083E063E0492F0E940B088D8D82958695FD
:1024C00086958370982F917083E062E0492F0E9477
:1024D0000B088D8D829586958770982F917083E07B
:1024E00061E0492F0E940B088D8D82958F70982F87
:1024F000917083E060E0492F0E940B0882E062E067
:1025000041E00E940B0880E090E0A0E8BFE3898FE3
:102510009A8FAB8FBC8F698D7A8D8B8D9C8D20E0CF
:1025200030E04AEF54E40E941702DC01CB018D8BAE
:102530009E8BAF8BB88F6D897E898F89988D20E0B7
:1025400030E040E85FE30E94710388232CF481E0CF
:1025500090E09C8B8B8B3FC06D897E898F89988D95
:1025600020E03FEF4FE757E40E94110318164CF5A7
:10257000698D7A8D8B8D9C8D20E030E040E251E4B6
:102580000E941702DC01CB01BC01CD010E94410079
:10259000DC01CB019C8B8B8B0FC088EC90E09A8B7D
:1025A000898B89899A890197F1F79A8B898B8B8915
:1025B0009C8901979C8B8B8B8B899C89009769F7F1
:1025C00014C06D897E898F89988D0E944100DC013D
:1025D000CB019C8B8B8B8B899C89988B8F878F856C
:1025E00098890197F1F7988B8F8782E062E040E04D
:1025F0000E940B088D8D869586958695982F9170F3
:1026000083E063E0492F0E940B088D8D86958695A7
:10261000982F917083E062E0492F0E940B088D8D06
:102620008695982F917083E061E0492F0E940B08F6
:102630008D8D982F917083E060E0492F0E940B08E8
:1026400082E062E041E00E940B0880E090E0A0E8B8
:10265000BFE38B879C87AD87BE876B857C858D8527
:102660009E8520E030E04AEF54E40E941702DC012E
:10267000CB018F839887A987BA876F8178858985F1
:102680009A8520E030E040E85FE30E9471038823F0
:102690002CF481E090E09E838D833FC06F8178852C
:1026A00089859A8520E03FEF4FE757E40E941103A8
:1026B00018164CF56B857C858D859E8520E030E075
:1026C00040E251E40E941702DC01CB01BC01CD01C4
:1026D0000E944100DC01CB019E838D830FC088ECFA
:1026E00090E09C838B838B819C810197F1F79C8385
:1026F0008B838D819E8101979E838D838D819E81A9
:10270000009769F714C06F81788589859A850E9442
:102710004100DC01CB019E838D838D819E819A8354
:10272000898389819A810197F1F79A83898382E06D
:1027300062E040E00E940B086D960FB6F894DEBF91
:102740000FBECDBFCF91DF910895DF93CF93CDB76B
:10275000DEB72E970FB6F894DEBF0FBECDBF81E077
:102760000E94F30F80E090E0A0E0B0E48B879C87AC
:10277000AD87BE876B857C858D859E8520E030E0AA
:102780004AEF54E40E941702DC01CB018F83988743
:10279000A987BA876F81788589859A8520E030E09E
:1027A00040E85FE30E94710388232CF481E090E00D
:1027B0009E838D833FC06F81788589859A8520E0CF
:1027C0003FEF4FE757E40E94110318164CF56B8555
:1027D0007C858D859E8520E030E040E251E40E94BA
:1027E0001702DC01CB01BC01CD010E944100DC01DC
:1027F000CB019E838D830FC088EC90E09C838B83FC
:102800008B819C810197F1F79C838B838D819E81C5
:1028100001979E838D838D819E81009769F714C0F7
:102820006F81788589859A850E944100DC01CB0102
:102830009E838D838D819E819A83898389819A81EC
:102840000197F1F79A8389832E960FB6F894DEBF2D
:102850000FBECDBFCF91DF910895DF93CF9300D00E
:10286000CDB7DEB789836A838981882F90E002968D
:102870000024969587950794969587950794982FA9
:10288000802D982F8A81890F0E94F30F0F900F904F
:10289000CF91DF910895DF93CF9300D00F92CDB702
:1028A000DEB79B838A838981282F30E08A819B81D0
:1028B000FC01E20FF31F80810E943E1289818F5F2D
:1028C00089838981282F30E08A819B81FC01E20F76
:1028D000F31F8081882339F70F900F900F90CF91CD
:1028E000DF910895EF92FF920F931F93DF93CF93A1
:1028F000CDB7DEB728970FB6F894DEBF0FBECDBFB9
:102900006D837E838F8398878D819E81AF81B8850B
:102910000097A105B10591F48D819E81AF81B885A5
:102920002AE030E040E050E0BC01CD010E94E21618
:10293000DC01CB01805D0E943E1274C081E090E01A
:10294000A0E0B0E089839A83AB83BC8336C08981E1
:102950009A81AB81BC812AE030E040E050E0BC01CC
:10296000CD010E94AF167B018C018D819E81AF81CC
:10297000B8852AE030E040E050E0BC01CD010E9483
:10298000E216DC01CB018E0D9F1DA01FB11F8983B4
:102990009A83AB83BC838D819E81AF81B8852AE009
:1029A00030E040E050E0BC01CD010E94E216DA01C7
:1029B000C9018D839E83AF83B8878D819E81AF814E
:1029C000B8850097A105B10511F623C089819A81C8
:1029D000AB81BC812AE030E040E050E0BC01CD0199
:1029E0000E94E216DC01CB01805D0E943E128981CB
:1029F0009A81AB81BC812AE030E040E050E0BC012C
:102A0000CD010E94E216DA01C90189839A83AB8362
:102A1000BC8389819A81AB81BC8181309105A105FC
:102A2000B105A1F628960FB6F894DEBF0FBECDBF54
:102A3000CF91DF911F910F91FF90EF900895DF9359
:102A4000CF9300D000D0CDB7DEB78A837C836B8371
:102A50008A81882F90E0880F991F880F991F880F0F
:102A6000991F80640E94F30F19820EC08981282F5C
:102A700030E08B819C81FC01E20FF31F80810E947A
:102A80003E1289818F5F89838981883078F380E85D
:102A90000E94F30F0F900F900F900F90CF91DF9146
:102AA00008950F931F93DF93CF93CDB7DEB7E797CA
:102AB0000FB6F894DEBF0FBECDBF1B8A1A8A198AE3
:102AC000188A1F861D8A1C8ACE0146969FA78EA74C
:102AD000E0E6F0E0F9ABE8ABFCE0FAABE8A9F9A975
:102AE000008088A999A9019699AB88ABEEA5FFA5AE
:102AF00000828EA59FA501969FA78EA79AA99150A7
:102B00009AABEAA9EE2351F7CE0182969CAB8BAB30
:102B1000ECE6F0E0FEABEDABFCE0FFABEDA9FEA90F
:102B200000808DA99EA901969EAB8DABEBA9FCA957
:102B300000828BA99CA901969CAB8BAB9FA991505D
:102B40009FABEFA9EE2351F783E067E041E00E94DD
:102B5000280680E060E040E00E94280681E061E015
:102B60000E949B050E94EA0C0E94E60D80E060E056
:102B70000E942D14CE0146960E944B1481E060E025
:102B80000E942D14CE0182960E944B149E012E5E4F
:102B90003F4F80E0B9010E94EB058A899B892AE0BA
:102BA00030E0B9010E94CE16CB01898B80E06AE04B
:102BB0000E942D148989882F90E0A0E0B0E0BC012C
:102BC000CD010E9472140E94130D882309F4B6C02F
:102BD000B1C08F85082F10E00E94130D282FCE0161
:102BE0004496FC01E00FF11F20838F85282F30E0F1
:102BF000CE014496FC01E20FF31F8081882309F483
:102C000099C08F85982F975F81E0692F0E942D14BE
:102C10008F85282F30E0CE014496FC01E20FF31F90
:102C200080810E943E128C89882F90E09C01220FA7
:102C3000331FC901880F991F880F991F820F931F97
:102C4000982F8D89890F8051888B80E090E0A8E4CF
:102C5000B3E48B879C87AD87BE876B857C858D852C
:102C60009E8520E030E04AEF54E40E941702DC0128
:102C7000CB018F839887A987BA876F8178858985EB
:102C80009A8520E030E040E85FE30E9471038823EA
:102C90002CF481E090E09E838D833FC06F81788526
:102CA00089859A8520E03FEF4FE757E40E941103A2
:102CB00018164CF56B857C858D859E8520E030E06F
:102CC00040E251E40E941702DC01CB01BC01CD01BE
:102CD0000E944100DC01CB019E838D830FC088ECF4
:102CE00090E09C838B838B819C810197F1F79C837F
:102CF0008B838D819E8101979E838D838D819E81A3
:102D0000009769F714C06F81788589859A850E943C
:102D10004100DC01CB019E838D838D819E819A834E
:102D2000898389819A810197F1F79A8389838F85B5
:102D30008F5F8F878F85823008F44BCF9889898980
:102D4000891730F483E067E041E00E940B0805C07A
:102D500083E067E040E00E940B081F8617CF629F68
:102D6000D001739FF001829FE00DF11D649FE00D83
:102D7000F11D929FF00D839FF00D749FF00D659FE4
:102D8000F00D9927729FB00DE11DF91F639FB00DE3
:102D9000E11DF91FBD01CF0111240895AA1BBB1B22
:102DA00051E107C0AA1FBB1FA617B70710F0A61B4B
:102DB000B70B881F991F5A95A9F780959095BC016C
:102DC000CD010895A1E21A2EAA1BBB1BFD010DC067
:102DD000AA1FBB1FEE1FFF1FA217B307E407F507CB
:102DE00020F0A21BB30BE40BF50B661F771F881FA7
:102DF000991F1A9469F760957095809590959B013D
:102E0000AC01BD01CF0108952F923F924F925F9286
:102E10006F927F928F929F92AF92BF92CF92DF92EA
:102E2000EF92FF920F931F93CF93DF93CDB7DEB74F
:102E3000CA1BDB0B0FB6F894DEBF0FBECDBF0994E3
:102E40002A88398848885F846E847D848C849B843A
:102E5000AA84B984C884DF80EE80FD800C811B8148
:102E6000AA81B981CE0FD11D0FB6F894DEBF0FBE77
:0A2E7000CDBFED010895F894FFCFE7
:102E7A006C64722076616C75653A20006B70642010
:102E8A0076616C75653A20000000000000000000C1
:102E9A003738392F3435362A3132332D43303D2BEA
:00000001FF
